{
  "_format": "hh3-artifact-1",
  "contractName": "Auction",
  "sourceName": "contracts/Auction.sol",
  "abi": [
    {
      "inputs": [
        {
          "internalType": "address",
          "name": "storeAddress_",
          "type": "address"
        }
      ],
      "stateMutability": "nonpayable",
      "type": "constructor"
    },
    {
      "inputs": [],
      "name": "AuctionClosedAlready",
      "type": "error"
    },
    {
      "inputs": [],
      "name": "AuctionResolvedAlready",
      "type": "error"
    },
    {
      "inputs": [],
      "name": "InvalidBidAmount",
      "type": "error"
    },
    {
      "inputs": [],
      "name": "InvalidTimeAmount",
      "type": "error"
    },
    {
      "inputs": [],
      "name": "InvalidUser",
      "type": "error"
    },
    {
      "inputs": [],
      "name": "OnlySwordsOnSale",
      "type": "error"
    },
    {
      "inputs": [],
      "name": "TimeIsUp",
      "type": "error"
    },
    {
      "inputs": [],
      "name": "TimeIsntEndYet",
      "type": "error"
    },
    {
      "anonymous": false,
      "inputs": [
        {
          "indexed": true,
          "internalType": "uint256",
          "name": "aucId",
          "type": "uint256"
        },
        {
          "indexed": true,
          "internalType": "address",
          "name": "seller",
          "type": "address"
        }
      ],
      "name": "AuctionCanceled",
      "type": "event"
    },
    {
      "anonymous": false,
      "inputs": [
        {
          "indexed": true,
          "internalType": "uint256",
          "name": "aucId",
          "type": "uint256"
        },
        {
          "indexed": true,
          "internalType": "address",
          "name": "seller",
          "type": "address"
        }
      ],
      "name": "AuctionClosed",
      "type": "event"
    },
    {
      "anonymous": false,
      "inputs": [
        {
          "indexed": true,
          "internalType": "uint256",
          "name": "aucId",
          "type": "uint256"
        },
        {
          "indexed": true,
          "internalType": "uint256",
          "name": "swordId",
          "type": "uint256"
        },
        {
          "indexed": false,
          "internalType": "address",
          "name": "seller",
          "type": "address"
        },
        {
          "indexed": false,
          "internalType": "uint256",
          "name": "timeEnd",
          "type": "uint256"
        },
        {
          "indexed": false,
          "internalType": "uint256",
          "name": "amount",
          "type": "uint256"
        }
      ],
      "name": "AuctionCreated",
      "type": "event"
    },
    {
      "anonymous": false,
      "inputs": [
        {
          "indexed": true,
          "internalType": "uint256",
          "name": "aucId",
          "type": "uint256"
        },
        {
          "indexed": true,
          "internalType": "address",
          "name": "seller",
          "type": "address"
        }
      ],
      "name": "AuctionResolved",
      "type": "event"
    },
    {
      "anonymous": false,
      "inputs": [
        {
          "indexed": true,
          "internalType": "uint256",
          "name": "aucId",
          "type": "uint256"
        },
        {
          "indexed": true,
          "internalType": "address",
          "name": "buyer",
          "type": "address"
        },
        {
          "indexed": false,
          "internalType": "uint256",
          "name": "amount",
          "type": "uint256"
        }
      ],
      "name": "BuyRequest",
      "type": "event"
    },
    {
      "inputs": [
        {
          "internalType": "uint256",
          "name": "",
          "type": "uint256"
        }
      ],
      "name": "AuctionList",
      "outputs": [
        {
          "internalType": "address",
          "name": "owner",
          "type": "address"
        },
        {
          "internalType": "uint256",
          "name": "SWORD_ID",
          "type": "uint256"
        },
        {
          "internalType": "uint256",
          "name": "timeEnd",
          "type": "uint256"
        },
        {
          "internalType": "uint256",
          "name": "amount",
          "type": "uint256"
        },
        {
          "internalType": "uint256",
          "name": "highestBid",
          "type": "uint256"
        },
        {
          "internalType": "address",
          "name": "highestBidder",
          "type": "address"
        },
        {
          "internalType": "enum Auction.AuctionEvent",
          "name": "state",
          "type": "uint8"
        }
      ],
      "stateMutability": "view",
      "type": "function"
    },
    {
      "inputs": [
        {
          "internalType": "uint256",
          "name": "aucId",
          "type": "uint256"
        },
        {
          "internalType": "uint256",
          "name": "amount",
          "type": "uint256"
        }
      ],
      "name": "buyRequest",
      "outputs": [],
      "stateMutability": "nonpayable",
      "type": "function"
    },
    {
      "inputs": [
        {
          "internalType": "uint256",
          "name": "aucId",
          "type": "uint256"
        }
      ],
      "name": "cancelAuc",
      "outputs": [],
      "stateMutability": "nonpayable",
      "type": "function"
    },
    {
      "inputs": [
        {
          "internalType": "uint256",
          "name": "duration",
          "type": "uint256"
        },
        {
          "internalType": "uint256",
          "name": "swordId",
          "type": "uint256"
        },
        {
          "internalType": "uint256",
          "name": "amount",
          "type": "uint256"
        },
        {
          "internalType": "uint256",
          "name": "startingBid",
          "type": "uint256"
        }
      ],
      "name": "createAuc",
      "outputs": [],
      "stateMutability": "nonpayable",
      "type": "function"
    },
    {
      "inputs": [],
      "name": "nextAuctionId",
      "outputs": [
        {
          "internalType": "uint256",
          "name": "",
          "type": "uint256"
        }
      ],
      "stateMutability": "view",
      "type": "function"
    },
    {
      "inputs": [
        {
          "internalType": "address",
          "name": "",
          "type": "address"
        },
        {
          "internalType": "address",
          "name": "",
          "type": "address"
        },
        {
          "internalType": "uint256[]",
          "name": "",
          "type": "uint256[]"
        },
        {
          "internalType": "uint256[]",
          "name": "",
          "type": "uint256[]"
        },
        {
          "internalType": "bytes",
          "name": "",
          "type": "bytes"
        }
      ],
      "name": "onERC1155BatchReceived",
      "outputs": [
        {
          "internalType": "bytes4",
          "name": "",
          "type": "bytes4"
        }
      ],
      "stateMutability": "nonpayable",
      "type": "function"
    },
    {
      "inputs": [
        {
          "internalType": "address",
          "name": "",
          "type": "address"
        },
        {
          "internalType": "address",
          "name": "",
          "type": "address"
        },
        {
          "internalType": "uint256",
          "name": "",
          "type": "uint256"
        },
        {
          "internalType": "uint256",
          "name": "",
          "type": "uint256"
        },
        {
          "internalType": "bytes",
          "name": "",
          "type": "bytes"
        }
      ],
      "name": "onERC1155Received",
      "outputs": [
        {
          "internalType": "bytes4",
          "name": "",
          "type": "bytes4"
        }
      ],
      "stateMutability": "nonpayable",
      "type": "function"
    },
    {
      "inputs": [
        {
          "internalType": "uint256",
          "name": "aucId",
          "type": "uint256"
        }
      ],
      "name": "prematureClose",
      "outputs": [],
      "stateMutability": "nonpayable",
      "type": "function"
    },
    {
      "inputs": [
        {
          "internalType": "uint256",
          "name": "aucId",
          "type": "uint256"
        }
      ],
      "name": "resolveAuc",
      "outputs": [],
      "stateMutability": "nonpayable",
      "type": "function"
    },
    {
      "inputs": [
        {
          "internalType": "bytes4",
          "name": "interfaceId",
          "type": "bytes4"
        }
      ],
      "name": "supportsInterface",
      "outputs": [
        {
          "internalType": "bool",
          "name": "",
          "type": "bool"
        }
      ],
      "stateMutability": "view",
      "type": "function"
    }
  ],
  "bytecode": "0x60806040525f600155348015610013575f5ffd5b50604051612169380380612169833981810160405281019061003591906100d8565b805f5f6101000a81548173ffffffffffffffffffffffffffffffffffffffff021916908373ffffffffffffffffffffffffffffffffffffffff16021790555050610103565b5f5ffd5b5f73ffffffffffffffffffffffffffffffffffffffff82169050919050565b5f6100a78261007e565b9050919050565b6100b78161009d565b81146100c1575f5ffd5b50565b5f815190506100d2816100ae565b92915050565b5f602082840312156100ed576100ec61007a565b5b5f6100fa848285016100c4565b91505092915050565b612059806101105f395ff3fe608060405234801561000f575f5ffd5b506004361061009c575f3560e01c8063c9551ab511610064578063c9551ab514610154578063e8d91ff61461018a578063f23a6e61146101a6578063fbd39115146101d6578063fc528482146101f25761009c565b806301ffc9a7146100a05780636858d62a146100d057806386c39981146100ec578063a25faff614610108578063bc197c8114610124575b5f5ffd5b6100ba60048036038101906100b591906117d1565b610210565b6040516100c79190611816565b60405180910390f35b6100ea60048036038101906100e59190611862565b610289565b005b610106600480360381019061010191906118c6565b6105ac565b005b610122600480360381019061011d91906118c6565b6109a6565b005b61013e60048036038101906101399190611b4b565b610d8a565b60405161014b9190611c25565b60405180910390f35b61016e600480360381019061016991906118c6565b610d9e565b6040516101819796959493929190611ccf565b60405180910390f35b6101a4600480360381019061019f9190611d3c565b610e27565b005b6101c060048036038101906101bb9190611d7a565b611249565b6040516101cd9190611c25565b60405180910390f35b6101f060048036038101906101eb91906118c6565b61125d565b005b6101fa6116fc565b6040516102079190611e0d565b60405180910390f35b5f7f4e2312e0000000000000000000000000000000000000000000000000000000007bffffffffffffffffffffffffffffffffffffffffffffffffffffffff1916827bffffffffffffffffffffffffffffffffffffffffffffffffffffffff19161480610282575061028182611702565b5b9050919050565b6301e1338084106102c6576040517f50e31e7b00000000000000000000000000000000000000000000000000000000815260040160405180910390fd5b5f83141580156102d7575060018314155b61030d576040517f4bb8b7c100000000000000000000000000000000000000000000000000000000815260040160405180910390fd5b5f8103610346576040517fe83664ea00000000000000000000000000000000000000000000000000000000815260040160405180910390fd5b5f3390505f85426103579190611e53565b90505f5f9054906101000a900473ffffffffffffffffffffffffffffffffffffffff1673ffffffffffffffffffffffffffffffffffffffff1663f242432a333088886040518563ffffffff1660e01b81526004016103b89493929190611eb9565b5f604051808303815f87803b1580156103cf575f5ffd5b505af11580156103e1573d5f5f3e3d5ffd5b505050506040518060e001604052808373ffffffffffffffffffffffffffffffffffffffff1681526020018681526020018281526020018581526020018481526020015f73ffffffffffffffffffffffffffffffffffffffff1681526020015f600181111561045357610452611c5c565b5b81525060025f60015481526020019081526020015f205f820151815f015f6101000a81548173ffffffffffffffffffffffffffffffffffffffff021916908373ffffffffffffffffffffffffffffffffffffffff1602179055506020820151816001015560408201518160020155606082015181600301556080820151816004015560a0820151816005015f6101000a81548173ffffffffffffffffffffffffffffffffffffffff021916908373ffffffffffffffffffffffffffffffffffffffff16021790555060c08201518160050160146101000a81548160ff0219169083600181111561054657610545611c5c565b5b0217905550905050846001547fc01e7da6ec06ecf5e1b887799549c755425a022ab59da72fa2d8c6255c10bc8584848860405161058593929190611f0f565b60405180910390a360015f81548092919061059f90611f44565b9190505550505050505050565b805f60018111156105c0576105bf611c5c565b5b60025f8381526020019081526020015f2060050160149054906101000a900460ff1660018111156105f4576105f3611c5c565b5b03610970575f60025f8481526020019081526020015f209050806002015442101561064b576040517f6415464c00000000000000000000000000000000000000000000000000000000815260040160405180910390fd5b60018160050160146101000a81548160ff0219169083600181111561067357610672611c5c565b5b02179055505f73ffffffffffffffffffffffffffffffffffffffff16816005015f9054906101000a900473ffffffffffffffffffffffffffffffffffffffff1673ffffffffffffffffffffffffffffffffffffffff161461083d575f5f9054906101000a900473ffffffffffffffffffffffffffffffffffffffff1673ffffffffffffffffffffffffffffffffffffffff1663f242432a30835f015f9054906101000a900473ffffffffffffffffffffffffffffffffffffffff16600185600401546040518563ffffffff1660e01b81526004016107549493929190611fcd565b5f604051808303815f87803b15801561076b575f5ffd5b505af115801561077d573d5f5f3e3d5ffd5b505050505f5f9054906101000a900473ffffffffffffffffffffffffffffffffffffffff1673ffffffffffffffffffffffffffffffffffffffff1663f242432a30836005015f9054906101000a900473ffffffffffffffffffffffffffffffffffffffff16846001015485600301546040518563ffffffff1660e01b815260040161080b9493929190611eb9565b5f604051808303815f87803b158015610822575f5ffd5b505af1158015610834573d5f5f3e3d5ffd5b505050506108f4565b5f5f9054906101000a900473ffffffffffffffffffffffffffffffffffffffff1673ffffffffffffffffffffffffffffffffffffffff1663f242432a30835f015f9054906101000a900473ffffffffffffffffffffffffffffffffffffffff16846001015485600301546040518563ffffffff1660e01b81526004016108c69493929190611eb9565b5f604051808303815f87803b1580156108dd575f5ffd5b505af11580156108ef573d5f5f3e3d5ffd5b505050505b60025f8481526020019081526020015f205f015f9054906101000a900473ffffffffffffffffffffffffffffffffffffffff1673ffffffffffffffffffffffffffffffffffffffff16837fea3cbdc0ae011d15814e03ac879a4578046537fafd7a1d374e67a71b9b5b458560405160405180910390a3506109a2565b6040517f281ee7cf00000000000000000000000000000000000000000000000000000000815260040160405180910390fd5b5050565b803373ffffffffffffffffffffffffffffffffffffffff1660025f8381526020019081526020015f205f015f9054906101000a900473ffffffffffffffffffffffffffffffffffffffff1673ffffffffffffffffffffffffffffffffffffffff1603610d54578160025f8281526020019081526020015f2060020154421015610d1c57825f6001811115610a3d57610a3c611c5c565b5b60025f8381526020019081526020015f2060050160149054906101000a900460ff166001811115610a7157610a70611c5c565b5b03610ce4575f60025f8681526020019081526020015f20905060018160050160146101000a81548160ff02191690836001811115610ab257610ab1611c5c565b5b02179055505f5f9054906101000a900473ffffffffffffffffffffffffffffffffffffffff1673ffffffffffffffffffffffffffffffffffffffff1663f242432a30835f015f9054906101000a900473ffffffffffffffffffffffffffffffffffffffff16846001015485600301546040518563ffffffff1660e01b8152600401610b409493929190611eb9565b5f604051808303815f87803b158015610b57575f5ffd5b505af1158015610b69573d5f5f3e3d5ffd5b505050505f73ffffffffffffffffffffffffffffffffffffffff16816005015f9054906101000a900473ffffffffffffffffffffffffffffffffffffffff1673ffffffffffffffffffffffffffffffffffffffff1614610c78575f5f9054906101000a900473ffffffffffffffffffffffffffffffffffffffff1673ffffffffffffffffffffffffffffffffffffffff1663f242432a30836005015f9054906101000a900473ffffffffffffffffffffffffffffffffffffffff16600185600401546040518563ffffffff1660e01b8152600401610c4a9493929190611fcd565b5f604051808303815f87803b158015610c61575f5ffd5b505af1158015610c73573d5f5f3e3d5ffd5b505050505b805f015f9054906101000a900473ffffffffffffffffffffffffffffffffffffffff1673ffffffffffffffffffffffffffffffffffffffff16857fba33dc9262f66e0a69a8a68054f2854b0d6285e694329da40d476180689d417f60405160405180910390a350610d16565b6040517f281ee7cf00000000000000000000000000000000000000000000000000000000815260040160405180910390fd5b50610d4e565b6040517ffcf06d9e00000000000000000000000000000000000000000000000000000000815260040160405180910390fd5b50610d86565b6040517ffd684c3b00000000000000000000000000000000000000000000000000000000815260040160405180910390fd5b5050565b5f63bc197c8160e01b905095945050505050565b6002602052805f5260405f205f91509050805f015f9054906101000a900473ffffffffffffffffffffffffffffffffffffffff1690806001015490806002015490806003015490806004015490806005015f9054906101000a900473ffffffffffffffffffffffffffffffffffffffff16908060050160149054906101000a900460ff16905087565b813373ffffffffffffffffffffffffffffffffffffffff1660025f8381526020019081526020015f205f015f9054906101000a900473ffffffffffffffffffffffffffffffffffffffff1673ffffffffffffffffffffffffffffffffffffffff1614611212578260025f8281526020019081526020015f20600201544210156111da57835f6001811115610ebe57610ebd611c5c565b5b60025f8381526020019081526020015f2060050160149054906101000a900460ff166001811115610ef257610ef1611c5c565b5b036111a25760025f8681526020019081526020015f20600401548411610f44576040517fe83664ea00000000000000000000000000000000000000000000000000000000815260040160405180910390fd5b5f60025f8781526020019081526020015f206005015f9054906101000a900473ffffffffffffffffffffffffffffffffffffffff1690505f60025f8881526020019081526020015f206004015490508560025f8981526020019081526020015f20600401819055503360025f8981526020019081526020015f206005015f6101000a81548173ffffffffffffffffffffffffffffffffffffffff021916908373ffffffffffffffffffffffffffffffffffffffff1602179055505f5f9054906101000a900473ffffffffffffffffffffffffffffffffffffffff1673ffffffffffffffffffffffffffffffffffffffff1663f242432a333060018a6040518563ffffffff1660e01b815260040161105e9493929190611fcd565b5f604051808303815f87803b158015611075575f5ffd5b505af1158015611087573d5f5f3e3d5ffd5b505050505f73ffffffffffffffffffffffffffffffffffffffff168273ffffffffffffffffffffffffffffffffffffffff161461114c575f5f9054906101000a900473ffffffffffffffffffffffffffffffffffffffff1673ffffffffffffffffffffffffffffffffffffffff1663f242432a30846001856040518563ffffffff1660e01b815260040161111e9493929190611fcd565b5f604051808303815f87803b158015611135575f5ffd5b505af1158015611147573d5f5f3e3d5ffd5b505050505b3373ffffffffffffffffffffffffffffffffffffffff16877f184952816574791a103128d3af77a2e96fcd169e7f29a9fac92b303c2dc5356c886040516111939190611e0d565b60405180910390a350506111d4565b6040517f281ee7cf00000000000000000000000000000000000000000000000000000000815260040160405180910390fd5b5061120c565b6040517ffcf06d9e00000000000000000000000000000000000000000000000000000000815260040160405180910390fd5b50611244565b6040517ffd684c3b00000000000000000000000000000000000000000000000000000000815260040160405180910390fd5b505050565b5f63f23a6e6160e01b905095945050505050565b803373ffffffffffffffffffffffffffffffffffffffff1660025f8381526020019081526020015f205f015f9054906101000a900473ffffffffffffffffffffffffffffffffffffffff1673ffffffffffffffffffffffffffffffffffffffff16036116c6578160025f8281526020019081526020015f206002015442101561168e57825f60018111156112f4576112f3611c5c565b5b60025f8381526020019081526020015f2060050160149054906101000a900460ff16600181111561132857611327611c5c565b5b03611656575f60025f8681526020019081526020015f20905060018160050160146101000a81548160ff0219169083600181111561136957611368611c5c565b5b02179055505f73ffffffffffffffffffffffffffffffffffffffff16816005015f9054906101000a900473ffffffffffffffffffffffffffffffffffffffff1673ffffffffffffffffffffffffffffffffffffffff1614611533575f5f9054906101000a900473ffffffffffffffffffffffffffffffffffffffff1673ffffffffffffffffffffffffffffffffffffffff1663f242432a30835f015f9054906101000a900473ffffffffffffffffffffffffffffffffffffffff16600185600401546040518563ffffffff1660e01b815260040161144a9493929190611fcd565b5f604051808303815f87803b158015611461575f5ffd5b505af1158015611473573d5f5f3e3d5ffd5b505050505f5f9054906101000a900473ffffffffffffffffffffffffffffffffffffffff1673ffffffffffffffffffffffffffffffffffffffff1663f242432a30836005015f9054906101000a900473ffffffffffffffffffffffffffffffffffffffff16846001015485600301546040518563ffffffff1660e01b81526004016115019493929190611eb9565b5f604051808303815f87803b158015611518575f5ffd5b505af115801561152a573d5f5f3e3d5ffd5b505050506115ea565b5f5f9054906101000a900473ffffffffffffffffffffffffffffffffffffffff1673ffffffffffffffffffffffffffffffffffffffff1663f242432a30835f015f9054906101000a900473ffffffffffffffffffffffffffffffffffffffff16846001015485600301546040518563ffffffff1660e01b81526004016115bc9493929190611eb9565b5f604051808303815f87803b1580156115d3575f5ffd5b505af11580156115e5573d5f5f3e3d5ffd5b505050505b805f015f9054906101000a900473ffffffffffffffffffffffffffffffffffffffff1673ffffffffffffffffffffffffffffffffffffffff16857f4ee22863e44dc98a9282c279daba781651b6f2f53506c89557430eb6772db94160405160405180910390a350611688565b6040517f281ee7cf00000000000000000000000000000000000000000000000000000000815260040160405180910390fd5b506116c0565b6040517ffcf06d9e00000000000000000000000000000000000000000000000000000000815260040160405180910390fd5b506116f8565b6040517ffd684c3b00000000000000000000000000000000000000000000000000000000815260040160405180910390fd5b5050565b60015481565b5f7f01ffc9a7000000000000000000000000000000000000000000000000000000007bffffffffffffffffffffffffffffffffffffffffffffffffffffffff1916827bffffffffffffffffffffffffffffffffffffffffffffffffffffffff1916149050919050565b5f604051905090565b5f5ffd5b5f5ffd5b5f7fffffffff0000000000000000000000000000000000000000000000000000000082169050919050565b6117b08161177c565b81146117ba575f5ffd5b50565b5f813590506117cb816117a7565b92915050565b5f602082840312156117e6576117e5611774565b5b5f6117f3848285016117bd565b91505092915050565b5f8115159050919050565b611810816117fc565b82525050565b5f6020820190506118295f830184611807565b92915050565b5f819050919050565b6118418161182f565b811461184b575f5ffd5b50565b5f8135905061185c81611838565b92915050565b5f5f5f5f6080858703121561187a57611879611774565b5b5f6118878782880161184e565b94505060206118988782880161184e565b93505060406118a98782880161184e565b92505060606118ba8782880161184e565b91505092959194509250565b5f602082840312156118db576118da611774565b5b5f6118e88482850161184e565b91505092915050565b5f73ffffffffffffffffffffffffffffffffffffffff82169050919050565b5f61191a826118f1565b9050919050565b61192a81611910565b8114611934575f5ffd5b50565b5f8135905061194581611921565b92915050565b5f5ffd5b5f601f19601f8301169050919050565b7f4e487b71000000000000000000000000000000000000000000000000000000005f52604160045260245ffd5b6119958261194f565b810181811067ffffffffffffffff821117156119b4576119b361195f565b5b80604052505050565b5f6119c661176b565b90506119d2828261198c565b919050565b5f67ffffffffffffffff8211156119f1576119f061195f565b5b602082029050602081019050919050565b5f5ffd5b5f611a18611a13846119d7565b6119bd565b90508083825260208201905060208402830185811115611a3b57611a3a611a02565b5b835b81811015611a645780611a50888261184e565b845260208401935050602081019050611a3d565b5050509392505050565b5f82601f830112611a8257611a8161194b565b5b8135611a92848260208601611a06565b91505092915050565b5f5ffd5b5f67ffffffffffffffff821115611ab957611ab861195f565b5b611ac28261194f565b9050602081019050919050565b828183375f83830152505050565b5f611aef611aea84611a9f565b6119bd565b905082815260208101848484011115611b0b57611b0a611a9b565b5b611b16848285611acf565b509392505050565b5f82601f830112611b3257611b3161194b565b5b8135611b42848260208601611add565b91505092915050565b5f5f5f5f5f60a08688031215611b6457611b63611774565b5b5f611b7188828901611937565b9550506020611b8288828901611937565b945050604086013567ffffffffffffffff811115611ba357611ba2611778565b5b611baf88828901611a6e565b935050606086013567ffffffffffffffff811115611bd057611bcf611778565b5b611bdc88828901611a6e565b925050608086013567ffffffffffffffff811115611bfd57611bfc611778565b5b611c0988828901611b1e565b9150509295509295909350565b611c1f8161177c565b82525050565b5f602082019050611c385f830184611c16565b92915050565b611c4781611910565b82525050565b611c568161182f565b82525050565b7f4e487b71000000000000000000000000000000000000000000000000000000005f52602160045260245ffd5b60028110611c9a57611c99611c5c565b5b50565b5f819050611caa82611c89565b919050565b5f611cb982611c9d565b9050919050565b611cc981611caf565b82525050565b5f60e082019050611ce25f83018a611c3e565b611cef6020830189611c4d565b611cfc6040830188611c4d565b611d096060830187611c4d565b611d166080830186611c4d565b611d2360a0830185611c3e565b611d3060c0830184611cc0565b98975050505050505050565b5f5f60408385031215611d5257611d51611774565b5b5f611d5f8582860161184e565b9250506020611d708582860161184e565b9150509250929050565b5f5f5f5f5f60a08688031215611d9357611d92611774565b5b5f611da088828901611937565b9550506020611db188828901611937565b9450506040611dc28882890161184e565b9350506060611dd38882890161184e565b925050608086013567ffffffffffffffff811115611df457611df3611778565b5b611e0088828901611b1e565b9150509295509295909350565b5f602082019050611e205f830184611c4d565b92915050565b7f4e487b71000000000000000000000000000000000000000000000000000000005f52601160045260245ffd5b5f611e5d8261182f565b9150611e688361182f565b9250828201905080821115611e8057611e7f611e26565b5b92915050565b5f82825260208201905092915050565b50565b5f611ea45f83611e86565b9150611eaf82611e96565b5f82019050919050565b5f60a082019050611ecc5f830187611c3e565b611ed96020830186611c3e565b611ee66040830185611c4d565b611ef36060830184611c4d565b8181036080830152611f0481611e99565b905095945050505050565b5f606082019050611f225f830186611c3e565b611f2f6020830185611c4d565b611f3c6040830184611c4d565b949350505050565b5f611f4e8261182f565b91507fffffffffffffffffffffffffffffffffffffffffffffffffffffffffffffffff8203611f8057611f7f611e26565b5b600182019050919050565b5f819050919050565b5f819050919050565b5f611fb7611fb2611fad84611f8b565b611f94565b61182f565b9050919050565b611fc781611f9d565b82525050565b5f60a082019050611fe05f830187611c3e565b611fed6020830186611c3e565b611ffa6040830185611fbe565b6120076060830184611c4d565b818103608083015261201881611e99565b90509594505050505056fea2646970667358221220520c4e315f2fbf9dd15fcfd9e966860a55c27b6ed4301d2eb57b5d22c828edc764736f6c634300081c0033",
  "linkReferences": {},
  "deployedLinkReferences": {},
  "immutableReferences": {},
  "inputSourceName": "project/contracts/Auction.sol",
  "buildInfoId": "solc-0_8_28-921a1254fe8cdb52665704dffd52ce7b03092c8b"
}