{
  "_format": "hh3-artifact-1",
  "contractName": "Auction",
  "sourceName": "contracts/Auction.sol",
  "abi": [
    {
      "inputs": [
        {
          "internalType": "address",
          "name": "storeAddress_",
          "type": "address"
        }
      ],
      "stateMutability": "nonpayable",
      "type": "constructor"
    },
    {
      "inputs": [],
      "name": "AuctionClosedAlready",
      "type": "error"
    },
    {
      "inputs": [],
      "name": "AuctionResolvedAlready",
      "type": "error"
    },
    {
      "inputs": [],
      "name": "InvalidBidAmount",
      "type": "error"
    },
    {
      "inputs": [],
      "name": "InvalidTimeAmount",
      "type": "error"
    },
    {
      "inputs": [],
      "name": "InvalidUser",
      "type": "error"
    },
    {
      "inputs": [],
      "name": "OnlySwordsOnSale",
      "type": "error"
    },
    {
      "inputs": [],
      "name": "TimeIsUp",
      "type": "error"
    },
    {
      "inputs": [],
      "name": "TimeIsntEndYet",
      "type": "error"
    },
    {
      "anonymous": false,
      "inputs": [
        {
          "indexed": true,
          "internalType": "uint256",
          "name": "aucId",
          "type": "uint256"
        },
        {
          "indexed": true,
          "internalType": "address",
          "name": "seller",
          "type": "address"
        }
      ],
      "name": "AuctionCanceled",
      "type": "event"
    },
    {
      "anonymous": false,
      "inputs": [
        {
          "indexed": true,
          "internalType": "uint256",
          "name": "aucId",
          "type": "uint256"
        },
        {
          "indexed": true,
          "internalType": "address",
          "name": "seller",
          "type": "address"
        }
      ],
      "name": "AuctionClosed",
      "type": "event"
    },
    {
      "anonymous": false,
      "inputs": [
        {
          "indexed": true,
          "internalType": "uint256",
          "name": "aucId",
          "type": "uint256"
        },
        {
          "indexed": true,
          "internalType": "uint256",
          "name": "swordId",
          "type": "uint256"
        },
        {
          "indexed": false,
          "internalType": "address",
          "name": "seller",
          "type": "address"
        },
        {
          "indexed": false,
          "internalType": "uint256",
          "name": "timeEnd",
          "type": "uint256"
        },
        {
          "indexed": false,
          "internalType": "uint256",
          "name": "amount",
          "type": "uint256"
        }
      ],
      "name": "AuctionCreated",
      "type": "event"
    },
    {
      "anonymous": false,
      "inputs": [
        {
          "indexed": true,
          "internalType": "uint256",
          "name": "aucId",
          "type": "uint256"
        },
        {
          "indexed": true,
          "internalType": "address",
          "name": "seller",
          "type": "address"
        }
      ],
      "name": "AuctionResolved",
      "type": "event"
    },
    {
      "anonymous": false,
      "inputs": [
        {
          "indexed": true,
          "internalType": "uint256",
          "name": "aucId",
          "type": "uint256"
        },
        {
          "indexed": true,
          "internalType": "address",
          "name": "buyer",
          "type": "address"
        },
        {
          "indexed": false,
          "internalType": "uint256",
          "name": "amount",
          "type": "uint256"
        }
      ],
      "name": "BuyRequest",
      "type": "event"
    },
    {
      "inputs": [
        {
          "internalType": "uint256",
          "name": "",
          "type": "uint256"
        }
      ],
      "name": "AuctionList",
      "outputs": [
        {
          "internalType": "address",
          "name": "owner",
          "type": "address"
        },
        {
          "internalType": "uint256",
          "name": "SWORD_ID",
          "type": "uint256"
        },
        {
          "internalType": "uint256",
          "name": "timeEnd",
          "type": "uint256"
        },
        {
          "internalType": "uint256",
          "name": "amount",
          "type": "uint256"
        },
        {
          "internalType": "uint256",
          "name": "highestBid",
          "type": "uint256"
        },
        {
          "internalType": "address",
          "name": "highestBidder",
          "type": "address"
        },
        {
          "internalType": "enum Auction.AuctionEvent",
          "name": "state",
          "type": "uint8"
        }
      ],
      "stateMutability": "view",
      "type": "function"
    },
    {
      "inputs": [
        {
          "internalType": "uint256",
          "name": "aucId",
          "type": "uint256"
        },
        {
          "internalType": "uint256",
          "name": "amount",
          "type": "uint256"
        }
      ],
      "name": "buyRequest",
      "outputs": [],
      "stateMutability": "nonpayable",
      "type": "function"
    },
    {
      "inputs": [
        {
          "internalType": "uint256",
          "name": "aucId",
          "type": "uint256"
        }
      ],
      "name": "cancelAuc",
      "outputs": [],
      "stateMutability": "nonpayable",
      "type": "function"
    },
    {
      "inputs": [
        {
          "internalType": "uint256",
          "name": "duration",
          "type": "uint256"
        },
        {
          "internalType": "uint256",
          "name": "swordId",
          "type": "uint256"
        },
        {
          "internalType": "uint256",
          "name": "amount",
          "type": "uint256"
        },
        {
          "internalType": "uint256",
          "name": "startingBid",
          "type": "uint256"
        }
      ],
      "name": "createAuc",
      "outputs": [],
      "stateMutability": "nonpayable",
      "type": "function"
    },
    {
      "inputs": [],
      "name": "nextAuctionId",
      "outputs": [
        {
          "internalType": "uint256",
          "name": "",
          "type": "uint256"
        }
      ],
      "stateMutability": "view",
      "type": "function"
    },
    {
      "inputs": [
        {
          "internalType": "address",
          "name": "",
          "type": "address"
        },
        {
          "internalType": "address",
          "name": "",
          "type": "address"
        },
        {
          "internalType": "uint256[]",
          "name": "",
          "type": "uint256[]"
        },
        {
          "internalType": "uint256[]",
          "name": "",
          "type": "uint256[]"
        },
        {
          "internalType": "bytes",
          "name": "",
          "type": "bytes"
        }
      ],
      "name": "onERC1155BatchReceived",
      "outputs": [
        {
          "internalType": "bytes4",
          "name": "",
          "type": "bytes4"
        }
      ],
      "stateMutability": "nonpayable",
      "type": "function"
    },
    {
      "inputs": [
        {
          "internalType": "address",
          "name": "",
          "type": "address"
        },
        {
          "internalType": "address",
          "name": "",
          "type": "address"
        },
        {
          "internalType": "uint256",
          "name": "",
          "type": "uint256"
        },
        {
          "internalType": "uint256",
          "name": "",
          "type": "uint256"
        },
        {
          "internalType": "bytes",
          "name": "",
          "type": "bytes"
        }
      ],
      "name": "onERC1155Received",
      "outputs": [
        {
          "internalType": "bytes4",
          "name": "",
          "type": "bytes4"
        }
      ],
      "stateMutability": "nonpayable",
      "type": "function"
    },
    {
      "inputs": [
        {
          "internalType": "uint256",
          "name": "aucId",
          "type": "uint256"
        }
      ],
      "name": "resolveAuc",
      "outputs": [],
      "stateMutability": "nonpayable",
      "type": "function"
    },
    {
      "inputs": [
        {
          "internalType": "bytes4",
          "name": "interfaceId",
          "type": "bytes4"
        }
      ],
      "name": "supportsInterface",
      "outputs": [
        {
          "internalType": "bool",
          "name": "",
          "type": "bool"
        }
      ],
      "stateMutability": "view",
      "type": "function"
    }
  ],
  "bytecode": "0x60806040525f6001553480156012575f5ffd5b50604051610f2a380380610f2a833981016040819052602f916052565b5f80546001600160a01b0319166001600160a01b0392909216919091179055607d565b5f602082840312156061575f5ffd5b81516001600160a01b03811681146076575f5ffd5b9392505050565b610ea08061008a5f395ff3fe608060405234801561000f575f5ffd5b5060043610610090575f3560e01c8063bc197c8111610063578063bc197c81146100f7578063c9551ab51461012f578063e8d91ff61461019d578063f23a6e61146101b0578063fc528482146101cf575f5ffd5b806301ffc9a7146100945780636858d62a146100bc57806386c39981146100d1578063a25faff6146100e4575b5f5ffd5b6100a76100a2366004610a9b565b6101e6565b60405190151581526020015b60405180910390f35b6100cf6100ca366004610ac9565b61021c565b005b6100cf6100df366004610af8565b61048b565b6100cf6100f2366004610af8565b6106c4565b610116610105366004610c5b565b63bc197c8160e01b95945050505050565b6040516001600160e01b031990911681526020016100b3565b61018a61013d366004610af8565b600260208190525f91825260409091208054600182015492820154600383015460048401546005909401546001600160a01b0393841695949293919291811690600160a01b900460ff1687565b6040516100b39796959493929190610d1e565b6100cf6101ab366004610d80565b6108b5565b6101166101be366004610da0565b63f23a6e6160e01b95945050505050565b6101d860015481565b6040519081526020016100b3565b5f6001600160e01b03198216630271189760e51b148061021657506301ffc9a760e01b6001600160e01b03198316145b92915050565b6301e133808410610240576040516350e31e7b60e01b815260040160405180910390fd5b8215801590610250575082600114155b61026d57604051634bb8b7c160e01b815260040160405180910390fd5b805f036102b55760405162461bcd60e51b8152602060048201526012602482015271125b9d985b1a5908189a5908185b5bdd5b9d60721b604482015260640160405180910390fd5b335f6102c18642610e08565b5f54604051637921219560e11b81529192506001600160a01b03169063f242432a906102f790339030908a908a90600401610e1b565b5f604051808303815f87803b15801561030e575f5ffd5b505af1158015610320573d5f5f3e3d5ffd5b505050506040518060e00160405280836001600160a01b031681526020018681526020018281526020018581526020018481526020015f6001600160a01b031681526020015f600181111561037757610377610d0a565b9052600180545f90815260026020818152604092839020855181546001600160a01b03199081166001600160a01b0392831617835592870151828701559386015192810192909255606085015160038301556080850151600483015560a085015160058301805492831691909416908117845560c086015192949293926001600160a81b03199092161790600160a01b90849081111561041957610419610d0a565b021790555050600154604080516001600160a01b0386168152602081018590529081018790528792507fc01e7da6ec06ecf5e1b887799549c755425a022ab59da72fa2d8c6255c10bc859060600160405180910390a360018054905f61047e83610e52565b9190505550505050505050565b805f5f82815260026020526040902060050154600160a01b900460ff1660018111156104b9576104b9610d0a565b036106ab575f828152600260208190526040909120908101544210156104f257604051631905519360e21b815260040160405180910390fd5b600581018054600160a01b60ff60a01b198216179091556001600160a01b0316156105f5575f548154600480840154604051637921219560e11b81526001600160a01b039485169463f242432a94610554943094919092169260019201610e1b565b5f604051808303815f87803b15801561056b575f5ffd5b505af115801561057d573d5f5f3e3d5ffd5b50505f54600584015460018501546003860154604051637921219560e11b81526001600160a01b03948516965063f242432a95506105c394309416929190600401610e1b565b5f604051808303815f87803b1580156105da575f5ffd5b505af11580156105ec573d5f5f3e3d5ffd5b50505050610663565b5f54815460018301546003840154604051637921219560e11b81526001600160a01b039485169463f242432a946106359430949190921692600401610e1b565b5f604051808303815f87803b15801561064c575f5ffd5b505af115801561065e573d5f5f3e3d5ffd5b505050505b5f838152600260205260408082205490516001600160a01b039091169185917fea3cbdc0ae011d15814e03ac879a4578046537fafd7a1d374e67a71b9b5b45859190a3505050565b60405163281ee7cf60e01b815260040160405180910390fd5b5f818152600260205260409020548190336001600160a01b039091160361089c575f8281526002602081905260409091200154829042101561088357825f5f82815260026020526040902060050154600160a01b900460ff16600181111561072e5761072e610d0a565b036106ab575f8481526002602052604080822060058101805460ff60a01b1916600160a01b17905591548254600184015460038501549351637921219560e11b81526001600160a01b039384169463f242432a94610796943094911692909190600401610e1b565b5f604051808303815f87803b1580156107ad575f5ffd5b505af11580156107bf573d5f5f3e3d5ffd5b5050505060058101546001600160a01b031615610844575f546005820154600480840154604051637921219560e11b81526001600160a01b039485169463f242432a94610816943094919092169260019201610e1b565b5f604051808303815f87803b15801561082d575f5ffd5b505af115801561083f573d5f5f3e3d5ffd5b505050505b80546040516001600160a01b039091169086907fba33dc9262f66e0a69a8a68054f2854b0d6285e694329da40d476180689d417f905f90a35050505050565b604051637e7836cf60e11b815260040160405180910390fd5b60405163fd684c3b60e01b815260040160405180910390fd5b5f8281526002602052604090205482906001600160a01b0316331461089c575f8381526002602081905260409091200154839042101561088357835f5f82815260026020526040902060050154600160a01b900460ff16600181111561091d5761091d610d0a565b036106ab575f8581526002602052604090206004015484116109525760405163741b327560e11b815260040160405180910390fd5b5f8581526002602052604080822060058101805460049283018054908a90556001600160a01b031982163390811790935594549351637921219560e11b81526001600160a01b0391821695949091169263f242432a926109bb92909130916001918d9101610e1b565b5f604051808303815f87803b1580156109d2575f5ffd5b505af11580156109e4573d5f5f3e3d5ffd5b505050506001600160a01b03821615610a5b575f54604051637921219560e11b81526001600160a01b039091169063f242432a90610a2d90309086906001908790600401610e1b565b5f604051808303815f87803b158015610a44575f5ffd5b505af1158015610a56573d5f5f3e3d5ffd5b505050505b604051868152339088907f184952816574791a103128d3af77a2e96fcd169e7f29a9fac92b303c2dc5356c9060200160405180910390a350505050505050565b5f60208284031215610aab575f5ffd5b81356001600160e01b031981168114610ac2575f5ffd5b9392505050565b5f5f5f5f60808587031215610adc575f5ffd5b5050823594602084013594506040840135936060013592509050565b5f60208284031215610b08575f5ffd5b5035919050565b80356001600160a01b0381168114610b25575f5ffd5b919050565b634e487b7160e01b5f52604160045260245ffd5b604051601f8201601f1916810167ffffffffffffffff81118282101715610b6757610b67610b2a565b604052919050565b5f82601f830112610b7e575f5ffd5b813567ffffffffffffffff811115610b9857610b98610b2a565b8060051b610ba860208201610b3e565b91825260208185018101929081019086841115610bc3575f5ffd5b6020860192505b83831015610be5578235825260209283019290910190610bca565b9695505050505050565b5f82601f830112610bfe575f5ffd5b813567ffffffffffffffff811115610c1857610c18610b2a565b610c2b601f8201601f1916602001610b3e565b818152846020838601011115610c3f575f5ffd5b816020850160208301375f918101602001919091529392505050565b5f5f5f5f5f60a08688031215610c6f575f5ffd5b610c7886610b0f565b9450610c8660208701610b0f565b9350604086013567ffffffffffffffff811115610ca1575f5ffd5b610cad88828901610b6f565b935050606086013567ffffffffffffffff811115610cc9575f5ffd5b610cd588828901610b6f565b925050608086013567ffffffffffffffff811115610cf1575f5ffd5b610cfd88828901610bef565b9150509295509295909350565b634e487b7160e01b5f52602160045260245ffd5b6001600160a01b03888116825260208201889052604082018790526060820186905260808201859052831660a082015260e0810160028310610d6e57634e487b7160e01b5f52602160045260245ffd5b8260c083015298975050505050505050565b5f5f60408385031215610d91575f5ffd5b50508035926020909101359150565b5f5f5f5f5f60a08688031215610db4575f5ffd5b610dbd86610b0f565b9450610dcb60208701610b0f565b93506040860135925060608601359150608086013567ffffffffffffffff811115610cf1575f5ffd5b634e487b7160e01b5f52601160045260245ffd5b8082018082111561021657610216610df4565b6001600160a01b0394851681529290931660208301526040820152606081019190915260a0608082018190525f9082015260c00190565b5f60018201610e6357610e63610df4565b506001019056fea264697066735822122083b328ece578d8cc1e858a8413389fb446287702a1a7e4b8a140cf0dbed5134b64736f6c634300081c0033",
  "linkReferences": {},
  "deployedLinkReferences": {},
  "immutableReferences": {},
  "inputSourceName": "project/contracts/Auction.sol",
  "buildInfoId": "solc-0_8_28-6a4d0e370e51806ef15e2c0001cf7855369610bb"
}