{
  "_format": "hh3-artifact-1",
  "contractName": "Bankeer",
  "sourceName": "contracts/Bankeer.sol",
  "abi": [
    {
      "inputs": [
        {
          "internalType": "address",
          "name": "initialOwner",
          "type": "address"
        },
        {
          "internalType": "address",
          "name": "treasuryAddress_",
          "type": "address"
        },
        {
          "internalType": "address",
          "name": "bankAddress_",
          "type": "address"
        }
      ],
      "stateMutability": "nonpayable",
      "type": "constructor"
    },
    {
      "inputs": [],
      "name": "BankAndTreasuryCantBeTheSame",
      "type": "error"
    },
    {
      "inputs": [
        {
          "internalType": "address",
          "name": "sender",
          "type": "address"
        },
        {
          "internalType": "uint256",
          "name": "balance",
          "type": "uint256"
        },
        {
          "internalType": "uint256",
          "name": "needed",
          "type": "uint256"
        },
        {
          "internalType": "uint256",
          "name": "tokenId",
          "type": "uint256"
        }
      ],
      "name": "ERC1155InsufficientBalance",
      "type": "error"
    },
    {
      "inputs": [
        {
          "internalType": "address",
          "name": "approver",
          "type": "address"
        }
      ],
      "name": "ERC1155InvalidApprover",
      "type": "error"
    },
    {
      "inputs": [
        {
          "internalType": "uint256",
          "name": "idsLength",
          "type": "uint256"
        },
        {
          "internalType": "uint256",
          "name": "valuesLength",
          "type": "uint256"
        }
      ],
      "name": "ERC1155InvalidArrayLength",
      "type": "error"
    },
    {
      "inputs": [
        {
          "internalType": "address",
          "name": "operator",
          "type": "address"
        }
      ],
      "name": "ERC1155InvalidOperator",
      "type": "error"
    },
    {
      "inputs": [
        {
          "internalType": "address",
          "name": "receiver",
          "type": "address"
        }
      ],
      "name": "ERC1155InvalidReceiver",
      "type": "error"
    },
    {
      "inputs": [
        {
          "internalType": "address",
          "name": "sender",
          "type": "address"
        }
      ],
      "name": "ERC1155InvalidSender",
      "type": "error"
    },
    {
      "inputs": [
        {
          "internalType": "address",
          "name": "operator",
          "type": "address"
        },
        {
          "internalType": "address",
          "name": "owner",
          "type": "address"
        }
      ],
      "name": "ERC1155MissingApprovalForAll",
      "type": "error"
    },
    {
      "inputs": [],
      "name": "FunctionDisabled",
      "type": "error"
    },
    {
      "inputs": [
        {
          "internalType": "address",
          "name": "owner",
          "type": "address"
        }
      ],
      "name": "OwnableInvalidOwner",
      "type": "error"
    },
    {
      "inputs": [
        {
          "internalType": "address",
          "name": "account",
          "type": "address"
        }
      ],
      "name": "OwnableUnauthorizedAccount",
      "type": "error"
    },
    {
      "inputs": [],
      "name": "SizeDismatch",
      "type": "error"
    },
    {
      "inputs": [],
      "name": "TokenDoesntExist",
      "type": "error"
    },
    {
      "inputs": [],
      "name": "TokenDoesntExistInBank",
      "type": "error"
    },
    {
      "inputs": [],
      "name": "TokenIsAlreadyMinted",
      "type": "error"
    },
    {
      "inputs": [],
      "name": "UnauthorizedUser",
      "type": "error"
    },
    {
      "inputs": [],
      "name": "UnburnableToken",
      "type": "error"
    },
    {
      "inputs": [],
      "name": "UnmintableToken",
      "type": "error"
    },
    {
      "anonymous": false,
      "inputs": [
        {
          "indexed": true,
          "internalType": "address",
          "name": "account",
          "type": "address"
        },
        {
          "indexed": true,
          "internalType": "address",
          "name": "operator",
          "type": "address"
        },
        {
          "indexed": false,
          "internalType": "bool",
          "name": "approved",
          "type": "bool"
        }
      ],
      "name": "ApprovalForAll",
      "type": "event"
    },
    {
      "anonymous": false,
      "inputs": [
        {
          "indexed": true,
          "internalType": "address",
          "name": "previousOwner",
          "type": "address"
        },
        {
          "indexed": true,
          "internalType": "address",
          "name": "newOwner",
          "type": "address"
        }
      ],
      "name": "OwnershipTransferred",
      "type": "event"
    },
    {
      "anonymous": false,
      "inputs": [
        {
          "indexed": true,
          "internalType": "address",
          "name": "operator",
          "type": "address"
        },
        {
          "indexed": true,
          "internalType": "address",
          "name": "from",
          "type": "address"
        },
        {
          "indexed": true,
          "internalType": "address",
          "name": "to",
          "type": "address"
        },
        {
          "indexed": false,
          "internalType": "uint256[]",
          "name": "ids",
          "type": "uint256[]"
        },
        {
          "indexed": false,
          "internalType": "uint256[]",
          "name": "values",
          "type": "uint256[]"
        }
      ],
      "name": "TransferBatch",
      "type": "event"
    },
    {
      "anonymous": false,
      "inputs": [
        {
          "indexed": true,
          "internalType": "address",
          "name": "operator",
          "type": "address"
        },
        {
          "indexed": true,
          "internalType": "address",
          "name": "from",
          "type": "address"
        },
        {
          "indexed": true,
          "internalType": "address",
          "name": "to",
          "type": "address"
        },
        {
          "indexed": false,
          "internalType": "uint256",
          "name": "id",
          "type": "uint256"
        },
        {
          "indexed": false,
          "internalType": "uint256",
          "name": "value",
          "type": "uint256"
        }
      ],
      "name": "TransferSingle",
      "type": "event"
    },
    {
      "anonymous": false,
      "inputs": [
        {
          "indexed": false,
          "internalType": "string",
          "name": "value",
          "type": "string"
        },
        {
          "indexed": true,
          "internalType": "uint256",
          "name": "id",
          "type": "uint256"
        }
      ],
      "name": "URI",
      "type": "event"
    },
    {
      "inputs": [],
      "name": "COIN",
      "outputs": [
        {
          "internalType": "uint256",
          "name": "",
          "type": "uint256"
        }
      ],
      "stateMutability": "view",
      "type": "function"
    },
    {
      "inputs": [
        {
          "internalType": "address",
          "name": "account",
          "type": "address"
        },
        {
          "internalType": "uint256",
          "name": "id",
          "type": "uint256"
        }
      ],
      "name": "balanceOf",
      "outputs": [
        {
          "internalType": "uint256",
          "name": "",
          "type": "uint256"
        }
      ],
      "stateMutability": "view",
      "type": "function"
    },
    {
      "inputs": [
        {
          "internalType": "address[]",
          "name": "accounts",
          "type": "address[]"
        },
        {
          "internalType": "uint256[]",
          "name": "ids",
          "type": "uint256[]"
        }
      ],
      "name": "balanceOfBatch",
      "outputs": [
        {
          "internalType": "uint256[]",
          "name": "",
          "type": "uint256[]"
        }
      ],
      "stateMutability": "view",
      "type": "function"
    },
    {
      "inputs": [
        {
          "internalType": "address",
          "name": "acc",
          "type": "address"
        },
        {
          "internalType": "uint256",
          "name": "id",
          "type": "uint256"
        },
        {
          "internalType": "uint256",
          "name": "value",
          "type": "uint256"
        }
      ],
      "name": "burn",
      "outputs": [],
      "stateMutability": "nonpayable",
      "type": "function"
    },
    {
      "inputs": [
        {
          "internalType": "address",
          "name": "acc",
          "type": "address"
        },
        {
          "internalType": "uint256[]",
          "name": "ids",
          "type": "uint256[]"
        },
        {
          "internalType": "uint256[]",
          "name": "values",
          "type": "uint256[]"
        }
      ],
      "name": "burnBatch",
      "outputs": [],
      "stateMutability": "nonpayable",
      "type": "function"
    },
    {
      "inputs": [
        {
          "internalType": "uint256",
          "name": "id",
          "type": "uint256"
        },
        {
          "internalType": "bytes",
          "name": "data",
          "type": "bytes"
        }
      ],
      "name": "buySWORD",
      "outputs": [],
      "stateMutability": "nonpayable",
      "type": "function"
    },
    {
      "inputs": [
        {
          "internalType": "uint256",
          "name": "id",
          "type": "uint256"
        },
        {
          "internalType": "uint256",
          "name": "amount",
          "type": "uint256"
        },
        {
          "internalType": "bytes",
          "name": "data",
          "type": "bytes"
        }
      ],
      "name": "buySWORDBatch",
      "outputs": [],
      "stateMutability": "nonpayable",
      "type": "function"
    },
    {
      "inputs": [
        {
          "internalType": "uint256",
          "name": "id",
          "type": "uint256"
        }
      ],
      "name": "exists",
      "outputs": [
        {
          "internalType": "bool",
          "name": "",
          "type": "bool"
        }
      ],
      "stateMutability": "view",
      "type": "function"
    },
    {
      "inputs": [
        {
          "internalType": "uint256",
          "name": "id",
          "type": "uint256"
        }
      ],
      "name": "getPrice",
      "outputs": [
        {
          "internalType": "uint256",
          "name": "",
          "type": "uint256"
        }
      ],
      "stateMutability": "view",
      "type": "function"
    },
    {
      "inputs": [
        {
          "internalType": "uint256[]",
          "name": "ids",
          "type": "uint256[]"
        }
      ],
      "name": "getPriceBatch",
      "outputs": [
        {
          "internalType": "uint256[]",
          "name": "",
          "type": "uint256[]"
        }
      ],
      "stateMutability": "view",
      "type": "function"
    },
    {
      "inputs": [
        {
          "internalType": "address",
          "name": "account",
          "type": "address"
        },
        {
          "internalType": "address",
          "name": "operator",
          "type": "address"
        }
      ],
      "name": "isApprovedForAll",
      "outputs": [
        {
          "internalType": "bool",
          "name": "",
          "type": "bool"
        }
      ],
      "stateMutability": "view",
      "type": "function"
    },
    {
      "inputs": [
        {
          "internalType": "address",
          "name": "to",
          "type": "address"
        },
        {
          "internalType": "uint256",
          "name": "id",
          "type": "uint256"
        },
        {
          "internalType": "uint256",
          "name": "amount",
          "type": "uint256"
        },
        {
          "internalType": "bytes",
          "name": "data",
          "type": "bytes"
        }
      ],
      "name": "mint",
      "outputs": [],
      "stateMutability": "nonpayable",
      "type": "function"
    },
    {
      "inputs": [
        {
          "internalType": "address",
          "name": "to",
          "type": "address"
        },
        {
          "internalType": "uint256",
          "name": "id",
          "type": "uint256"
        },
        {
          "internalType": "uint256",
          "name": "amount",
          "type": "uint256"
        },
        {
          "internalType": "uint256",
          "name": "price",
          "type": "uint256"
        },
        {
          "internalType": "bytes",
          "name": "data",
          "type": "bytes"
        }
      ],
      "name": "mint",
      "outputs": [],
      "stateMutability": "nonpayable",
      "type": "function"
    },
    {
      "inputs": [
        {
          "internalType": "address",
          "name": "to",
          "type": "address"
        },
        {
          "internalType": "uint256[]",
          "name": "ids",
          "type": "uint256[]"
        },
        {
          "internalType": "uint256[]",
          "name": "amounts",
          "type": "uint256[]"
        },
        {
          "internalType": "bytes",
          "name": "data",
          "type": "bytes"
        }
      ],
      "name": "mintBatch",
      "outputs": [],
      "stateMutability": "nonpayable",
      "type": "function"
    },
    {
      "inputs": [
        {
          "internalType": "address",
          "name": "to",
          "type": "address"
        },
        {
          "internalType": "uint256[]",
          "name": "ids",
          "type": "uint256[]"
        },
        {
          "internalType": "uint256[]",
          "name": "amounts",
          "type": "uint256[]"
        },
        {
          "internalType": "uint256[]",
          "name": "prices",
          "type": "uint256[]"
        },
        {
          "internalType": "bytes",
          "name": "data",
          "type": "bytes"
        }
      ],
      "name": "mintBatch",
      "outputs": [],
      "stateMutability": "nonpayable",
      "type": "function"
    },
    {
      "inputs": [],
      "name": "owner",
      "outputs": [
        {
          "internalType": "address",
          "name": "",
          "type": "address"
        }
      ],
      "stateMutability": "view",
      "type": "function"
    },
    {
      "inputs": [],
      "name": "renounceOwnership",
      "outputs": [],
      "stateMutability": "nonpayable",
      "type": "function"
    },
    {
      "inputs": [
        {
          "internalType": "address",
          "name": "from",
          "type": "address"
        },
        {
          "internalType": "address",
          "name": "to",
          "type": "address"
        },
        {
          "internalType": "uint256[]",
          "name": "ids",
          "type": "uint256[]"
        },
        {
          "internalType": "uint256[]",
          "name": "values",
          "type": "uint256[]"
        },
        {
          "internalType": "bytes",
          "name": "data",
          "type": "bytes"
        }
      ],
      "name": "safeBatchTransferFrom",
      "outputs": [],
      "stateMutability": "nonpayable",
      "type": "function"
    },
    {
      "inputs": [
        {
          "internalType": "address",
          "name": "from",
          "type": "address"
        },
        {
          "internalType": "address",
          "name": "to",
          "type": "address"
        },
        {
          "internalType": "uint256",
          "name": "id",
          "type": "uint256"
        },
        {
          "internalType": "uint256",
          "name": "value",
          "type": "uint256"
        },
        {
          "internalType": "bytes",
          "name": "data",
          "type": "bytes"
        }
      ],
      "name": "safeTransferFrom",
      "outputs": [],
      "stateMutability": "nonpayable",
      "type": "function"
    },
    {
      "inputs": [
        {
          "internalType": "address",
          "name": "operator",
          "type": "address"
        },
        {
          "internalType": "bool",
          "name": "approved",
          "type": "bool"
        }
      ],
      "name": "setApprovalForAll",
      "outputs": [],
      "stateMutability": "nonpayable",
      "type": "function"
    },
    {
      "inputs": [
        {
          "internalType": "address",
          "name": "newContractAddress",
          "type": "address"
        }
      ],
      "name": "setAuctionContractAddress",
      "outputs": [],
      "stateMutability": "nonpayable",
      "type": "function"
    },
    {
      "inputs": [
        {
          "internalType": "uint256",
          "name": "id",
          "type": "uint256"
        },
        {
          "internalType": "uint256",
          "name": "value",
          "type": "uint256"
        }
      ],
      "name": "setPrice",
      "outputs": [],
      "stateMutability": "nonpayable",
      "type": "function"
    },
    {
      "inputs": [
        {
          "internalType": "uint256[]",
          "name": "ids",
          "type": "uint256[]"
        },
        {
          "internalType": "uint256[]",
          "name": "values",
          "type": "uint256[]"
        }
      ],
      "name": "setPriceBatch",
      "outputs": [],
      "stateMutability": "nonpayable",
      "type": "function"
    },
    {
      "inputs": [
        {
          "internalType": "bytes4",
          "name": "interfaceId",
          "type": "bytes4"
        }
      ],
      "name": "supportsInterface",
      "outputs": [
        {
          "internalType": "bool",
          "name": "",
          "type": "bool"
        }
      ],
      "stateMutability": "view",
      "type": "function"
    },
    {
      "inputs": [
        {
          "internalType": "uint256",
          "name": "",
          "type": "uint256"
        }
      ],
      "name": "totalStorePrices",
      "outputs": [
        {
          "internalType": "uint256",
          "name": "",
          "type": "uint256"
        }
      ],
      "stateMutability": "view",
      "type": "function"
    },
    {
      "inputs": [
        {
          "internalType": "uint256",
          "name": "",
          "type": "uint256"
        }
      ],
      "name": "totalStoreVariety",
      "outputs": [
        {
          "internalType": "uint256",
          "name": "",
          "type": "uint256"
        }
      ],
      "stateMutability": "view",
      "type": "function"
    },
    {
      "inputs": [],
      "name": "totalSupply",
      "outputs": [
        {
          "internalType": "uint256",
          "name": "",
          "type": "uint256"
        }
      ],
      "stateMutability": "view",
      "type": "function"
    },
    {
      "inputs": [
        {
          "internalType": "uint256",
          "name": "id",
          "type": "uint256"
        }
      ],
      "name": "totalSupply",
      "outputs": [
        {
          "internalType": "uint256",
          "name": "",
          "type": "uint256"
        }
      ],
      "stateMutability": "view",
      "type": "function"
    },
    {
      "inputs": [
        {
          "internalType": "address",
          "name": "newOwner",
          "type": "address"
        }
      ],
      "name": "transferOwnership",
      "outputs": [],
      "stateMutability": "nonpayable",
      "type": "function"
    },
    {
      "inputs": [
        {
          "internalType": "uint256",
          "name": "",
          "type": "uint256"
        }
      ],
      "name": "uri",
      "outputs": [
        {
          "internalType": "string",
          "name": "",
          "type": "string"
        }
      ],
      "stateMutability": "view",
      "type": "function"
    }
  ],
  "bytecode": "0x608060405234801561000f575f5ffd5b50604051612cfc380380612cfc83398101604081905261002e91610169565b826040518060800160405280604c8152602001612cb0604c9139610051816100ed565b506001600160a01b03811661007f57604051631e4fbdf760e01b81525f600482015260240160405180910390fd5b610088816100fd565b50806001600160a01b0316826001600160a01b0316036100bb5760405163f5797abb60e01b815260040160405180910390fd5b600680546001600160a01b039384166001600160a01b03199182161790915560078054929093169116179055506102fb565b60026100f98282610241565b5050565b600580546001600160a01b038381166001600160a01b0319831681179093556040519116919082907f8be0079c531659141344cd1fd0a4f28419497f9722a3daafe3b4186f6b6457e0905f90a35050565b80516001600160a01b0381168114610164575f5ffd5b919050565b5f5f5f6060848603121561017b575f5ffd5b6101848461014e565b92506101926020850161014e565b91506101a06040850161014e565b90509250925092565b634e487b7160e01b5f52604160045260245ffd5b600181811c908216806101d157607f821691505b6020821081036101ef57634e487b7160e01b5f52602260045260245ffd5b50919050565b601f82111561023c57805f5260205f20601f840160051c8101602085101561021a5750805b601f840160051c820191505b81811015610239575f8155600101610226565b50505b505050565b81516001600160401b0381111561025a5761025a6101a9565b61026e8161026884546101bd565b846101f5565b6020601f8211600181146102a0575f83156102895750848201515b5f19600385901b1c1916600184901b178455610239565b5f84815260208120601f198516915b828110156102cf57878501518255602094850194600190920191016102af565b50848210156102ec57868401515f19600387901b60f8161c191681555b50505050600190811b01905550565b6129a8806103085f395ff3fe608060405234801561000f575f5ffd5b50600436106101d0575f3560e01c806386f05f1d116100fe578063bd85b0391161009e578063f2fde38b1161006e578063f2fde38b14610436578063f5298aca14610449578063f7d975771461045c578063f978606f1461046f575f5ffd5b8063bd85b039146103b6578063e7572230146103d5578063e985e9c5146103e8578063f242432a14610423575f5ffd5b8063a54a72b7116100d9578063a54a72b714610375578063a66f008c1461037d578063b05b1e1c14610390578063b49c99b8146103a3575f5ffd5b806386f05f1d146103345780638da5cb5b14610347578063a22cb46514610362575f5ffd5b806331d8e455116101745780635e649c97116101445780635e649c97146102e75780636b20c45414610306578063715018a614610319578063731133e914610321575f5ffd5b806331d8e455146102805780633dbba00e146102935780634e1273f4146102b35780634f558e79146102c6575f5ffd5b806318160ddd116101af57806318160ddd1461023d5780631e92421d146102455780631f7fdffa146102585780632eb2c2d61461026d575f5ffd5b8062fdd58e146101d457806301ffc9a7146101fa5780630e89341c1461021d575b5f5ffd5b6101e76101e2366004611ec0565b610482565b6040519081526020015b60405180910390f35b61020d610208366004611efd565b6104a9565b60405190151581526020016101f1565b61023061022b366004611f1f565b6104f8565b6040516101f19190611f64565b6004546101e7565b6101e7610253366004611f1f565b61058a565b61026b610266366004611ffa565b6105a9565b005b61026b61027b3660046121e1565b610a59565b61026b61028e36600461228d565b610a78565b6102a66102a13660046122a6565b610aa2565b6040516101f1919061231e565b6102a66102c1366004612330565b610c0e565b61020d6102d4366004611f1f565b5f90815260036020526040902054151590565b6101e76102f5366004611f1f565b600a6020525f908152604090205481565b61026b6103143660046123f1565b610cdd565b61026b610cf6565b61026b61032f366004612463565b610d09565b61026b6103423660046124bf565b610dde565b6005546040516001600160a01b0390911681526020016101f1565b61026b610370366004612529565b610eca565b6101e7600181565b61026b61038b366004612562565b610ed9565b61026b61039e3660046125a9565b611025565b61026b6103b1366004612685565b611218565b6101e76103c4366004611f1f565b5f9081526003602052604090205490565b6101e76103e3366004611f1f565b6112f8565b61020d6103f63660046126d1565b6001600160a01b039182165f90815260016020908152604080832093909416825291909152205460ff1690565b61026b610431366004612702565b611339565b61026b61044436600461228d565b61134f565b61026b610457366004612755565b61138c565b61026b61046a366004612785565b61141b565b61026b61047d3660046127a5565b611453565b5f818152602081815260408083206001600160a01b03861684529091529020545b92915050565b5f6001600160e01b03198216636cdb3d1360e11b14806104d957506001600160e01b031982166303a24d0760e21b145b806104a357506301ffc9a760e01b6001600160e01b03198316146104a3565b606060028054610507906127e7565b80601f0160208091040260200160405190810160405280929190818152602001828054610533906127e7565b801561057e5780601f106105555761010080835404028352916020019161057e565b820191905f5260205f20905b81548152906001019060200180831161056157829003601f168201915b50505050509050919050565b60098181548110610599575f80fd5b5f91825260209091200154905081565b6007546001600160a01b03163303610a37578483146105db57604051637688778b60e11b815260040160405180910390fd5b5f80866001600160401b038111156105f5576105f56120a6565b60405190808252806020026020018201604052801561061e578160200160208202803683370190505b5090505f876001600160401b0381111561063a5761063a6120a6565b604051908082528060200260200182016040528015610663578160200160208202803683370190505b5090505f5b88811015610802578989828181106106825761068261281f565b905060200201355f146107fa5760018a8a838181106106a3576106a361281f565b90506020020135036107175760018385815181106106c3576106c361281f565b6020026020010181815250508787828181106106e1576106e161281f565b905060200201358285815181106106fa576106fa61281f565b60209081029190910101528361070f81612847565b9450506107fa565b6107468a8a8381811061072c5761072c61281f565b905060200201355f90815260036020526040902054151590565b6107fa5760098a8a8381811061075e5761075e61281f565b83546001810185555f9485526020948590209190940292909201359190920155508989828181106107915761079161281f565b905060200201358385815181106107aa576107aa61281f565b6020026020010181815250508787828181106107c8576107c861281f565b905060200201358285815181106107e1576107e161281f565b6020908102919091010152836107f681612847565b9450505b600101610668565b50825f0361082357604051637688778b60e11b815260040160405180910390fd5b5f836001600160401b0381111561083c5761083c6120a6565b604051908082528060200260200182016040528015610865578160200160208202803683370190505b5090505f846001600160401b03811115610881576108816120a6565b6040519080825280602002602001820160405280156108aa578160200160208202803683370190505b5090508985101561097d575f5b85811015610936578481815181106108d1576108d161281f565b60200260200101518382815181106108eb576108eb61281f565b6020026020010181815250508381815181106109095761090961281f565b60200260200101518282815181106109235761092361281f565b60209081029190910101526001016108b7565b506109788c83838a8a8080601f0160208091040260200160405190810160405280939291908181526020018383808284375f9201919091525061156492505050565b610a2d565b610a2d8c8c8c808060200260200160405190810160405280939291908181526020018383602002808284375f81840152601f19601f820116905080830192505050505050508b8b808060200260200160405190810160405280939291908181526020018383602002808284375f9201919091525050604080516020601f8f018190048102820181019092528d815292508d91508c90819084018382808284375f9201919091525061156492505050565b5050505050610a50565b6040516302a43f8b60e01b815260040160405180910390fd5b50505050505050565b610a64335b8661159c565b610a718585858585611614565b5050505050565b610a80611674565b600880546001600160a01b0319166001600160a01b0392909216919091179055565b60605f805b83811015610ae9575f858583818110610ac257610ac261281f565b905060200201359050805f14610ae05782610adc81612847565b9350505b50600101610aa7565b50805f03610b0a57604051631d6fa32560e31b815260040160405180910390fd5b5f816001600160401b03811115610b2357610b236120a6565b604051908082528060200260200182016040528015610b4c578160200160208202803683370190505b5090505f805b85811015610c03575f878783818110610b6d57610b6d61281f565b905060200201359050805f14610bfa5760018103610baa576011848481518110610b9957610b9961281f565b602002602001018181525050610bec565b5f8181526003602052604090205415610bec575f818152600a60205260409020548451859085908110610bdf57610bdf61281f565b6020026020010181815250505b82610bf681612847565b9350505b50600101610b52565b509095945050505050565b60608151835114610c445781518351604051635b05999160e01b8152600481019290925260248201526044015b60405180910390fd5b5f83516001600160401b03811115610c5e57610c5e6120a6565b604051908082528060200260200182016040528015610c87578160200160208202803683370190505b5090505f5b8451811015610cd557602080820286010151610cb090602080840287010151610482565b828281518110610cc257610cc261281f565b6020908102919091010152600101610c8c565b509392505050565b6040516317e4829160e31b815260040160405180910390fd5b610cfe611674565b610d075f6116a1565b565b6007546001600160a01b03163303610a3757825f03610d3b5760405163092be29760e31b815260040160405180910390fd5b5f8381526003602052604090205415158015610d58575060018314155b15610d765760405163c4dd5ac760e01b815260040160405180910390fd5b5f83815260036020526040902054158015610d92575060018314155b15610dcc57600980546001810182555f919091527f6e1540171b6c0c960b71a7020d9f60077f6af931a8bbf590da0223dacf75c7af018390555b610dd8848484846116f2565b50505050565b6007546001600160a01b03163303610a3757828114610e1a57604051635b05999160e01b81526004810184905260248101829052604401610c3b565b5f5b83811015610ec4575f858583818110610e3757610e3761281f565b90506020020135905060018114158015610e5057508015155b8015610e6857505f8181526003602052604090205415155b15610ea2575f848484818110610e8057610e8061281f565b5f858152600a602090815260409091209102929092013590915550610ebb9050565b604051631d6fa32560e31b815260040160405180910390fd5b50600101610e1c565b50610dd8565b610ed5338383611756565b5050565b33610ee5336001610482565b5f858152600a60205260409020546001818310610fec576007545f90610f14906001600160a01b031689610482565b1115610fd0576007545f888152600a6020908152604091829020548251601f8a01839004830281018301909352888352610f7a9333936001600160a01b039091169260019291908c908c90819084018382808284375f9201919091525061181392505050565b600754604080516020601f8901819004810282018101909252878152610fcb926001600160a01b03169133918b91600191908c908c90819084018382808284375f9201919091525061181392505050565b610a50565b6040516001623529a360e01b0319815260040160405180910390fd5b6040516303dee4c560e01b81526001600160a01b0385166004820152602481018490526044810183905260648101829052608401610c3b565b6007546001600160a01b03163303610a37578685811415806110475750808414155b1561106557604051637688778b60e11b815260040160405180910390fd5b805f0361108557604051637688778b60e11b815260040160405180910390fd5b5f5b8181101561116b575f8a8a838181106110a2576110a261281f565b905060200201359050805f036110cb5760405163092be29760e31b815260040160405180910390fd5b60018114611162575f81815260036020526040902054156110ff5760405163c4dd5ac760e01b815260040160405180910390fd5b600980546001810182555f919091527f6e1540171b6c0c960b71a7020d9f60077f6af931a8bbf590da0223dacf75c7af018190558686838181106111455761114561281f565b90506020020135600a5f8381526020019081526020015f20819055505b50600101611087565b5061120b8a8a8a808060200260200160405190810160405280939291908181526020018383602002808284375f9201919091525050604080516020808e0282810182019093528d82529093508d92508c9182918501908490808284375f9201919091525050604080516020601f8b0181900481028201810190925289815292508991508890819084018382808284375f9201919091525061156492505050565b505b505050505050505050565b6007546001600160a01b03163303610a3757835f0361124a5760405163092be29760e31b815260040160405180910390fd5b5f8481526003602052604090205415158015611267575060018414155b156112855760405163c4dd5ac760e01b815260040160405180910390fd5b5f848152600360205260409020541580156112a1575060018414155b156112e75760098054600181019091557f6e1540171b6c0c960b71a7020d9f60077f6af931a8bbf590da0223dacf75c7af018490555f848152600a602052604090208290555b6112f3858585846116f2565b610a71565b5f8115611334576001820361130f57506011919050565b5f828152600360205260409020541561133457505f908152600a602052604090205490565b919050565b61134233610a5e565b610a718585858585611813565b611357611674565b6001600160a01b03811661138057604051631e4fbdf760e01b81525f6004820152602401610c3b565b611389816116a1565b50565b60018214158061139a575081155b156113b85760405163089edb3160e01b815260040160405180910390fd5b6005546001600160a01b03166001600160a01b0316836001600160a01b0316036113ec576113e7838383611897565b505050565b6113e78360065f9054906101000a90046001600160a01b0316848460405180602001604052805f815250611339565b6007546001600160a01b03163303610a37576001821415801561143d57508115155b15610ea2575f918252600a602052604090912055565b3361145f336001610482565b5f868152600a602052604090205461147890869061285f565b6001818310610fec576007548790611499906001600160a01b03168a610482565b10610fd0576007545f898152600a602052604090205461150a9133916001600160a01b03909116906001906114cf908c9061285f565b8a8a8080601f0160208091040260200160405190810160405280939291908181526020018383808284375f9201919091525061181392505050565b600754604080516020601f890181900481028201810190925287815261155a926001600160a01b03169133918c918c91908c908c90819084018382808284375f9201919091525061181392505050565b5050505050505050565b6001600160a01b03841661158d57604051632bfa23e760e11b81525f6004820152602401610c3b565b610dd85f8585858560016118f1565b816001600160a01b0316816001600160a01b0316141580156115e357506001600160a01b038082165f9081526001602090815260408083209386168352929052205460ff16155b15610ed55760405163711bec9160e11b81526001600160a01b03808416600483015282166024820152604401610c3b565b6001600160a01b03841661163d57604051632bfa23e760e11b81525f6004820152602401610c3b565b6001600160a01b03851661166557604051626a0d4560e21b81525f6004820152602401610c3b565b610a71858585858560016118f1565b6005546001600160a01b03163314610d075760405163118cdaa760e01b8152336004820152602401610c3b565b600580546001600160a01b038381166001600160a01b0319831681179093556040519116919082907f8be0079c531659141344cd1fd0a4f28419497f9722a3daafe3b4186f6b6457e0905f90a35050565b6001600160a01b03841661171b57604051632bfa23e760e11b81525f6004820152602401610c3b565b6040805160018082526020820186905281830190815260608201859052608082019092529061174e5f87848487846118f1565b505050505050565b6001600160a01b03831661177f57604051631f18c42760e11b81525f6004820152602401610c3b565b6001600160a01b0382166117a75760405162ced3e160e81b81525f6004820152602401610c3b565b6001600160a01b038381165f81815260016020908152604080832094871680845294825291829020805460ff191686151590811790915591519182527f17307eab39ab6107e8899845ad3d59bd9653f200f220920489ca2b5937696c31910160405180910390a3505050565b6001600160a01b03841661183c57604051632bfa23e760e11b81525f6004820152602401610c3b565b6001600160a01b03851661186457604051626a0d4560e21b81525f6004820152602401610c3b565b60408051600180825260208201869052818301908152606082018590526080820190925290610a5087878484875f6118f1565b6001600160a01b03831633148015906118b757506118b583336103f6565b155b156118e65760405163711bec9160e11b81523360048201526001600160a01b0384166024820152604401610c3b565b6113e7838383611939565b6118fd868686866119a0565b6001600160a01b0385161561174e5733811561192157610fcb8188888888886119ac565b6020858101519085015161120d838a8a85858a611acd565b6001600160a01b03831661196157604051626a0d4560e21b81525f6004820152602401610c3b565b604080516001808252602082018590528183019081526060820184905260a082019092525f60808201818152919291610a7191879185908590836118f1565b610dd884848484611bb4565b6001600160a01b0384163b1561174e5760405163bc197c8160e01b81526001600160a01b0385169063bc197c81906119f09089908990889088908890600401612876565b6020604051808303815f875af1925050508015611a2a575060408051601f3d908101601f19168201909252611a27918101906128d3565b60015b611a91573d808015611a57576040519150601f19603f3d011682016040523d82523d5f602084013e611a5c565b606091505b5080515f03611a8957604051632bfa23e760e11b81526001600160a01b0386166004820152602401610c3b565b805160208201fd5b6001600160e01b0319811663bc197c8160e01b14610a5057604051632bfa23e760e11b81526001600160a01b0386166004820152602401610c3b565b6001600160a01b0384163b1561174e5760405163f23a6e6160e01b81526001600160a01b0385169063f23a6e6190611b1190899089908890889088906004016128ee565b6020604051808303815f875af1925050508015611b4b575060408051601f3d908101601f19168201909252611b48918101906128d3565b60015b611b78573d808015611a57576040519150601f19603f3d011682016040523d82523d5f602084013e611a5c565b6001600160e01b0319811663f23a6e6160e01b14610a5057604051632bfa23e760e11b81526001600160a01b0386166004820152602401610c3b565b611bc084848484611c9b565b6001600160a01b038416611c3d575f805b8351811015611c245760208181028481018201519086018201515f908152600390925260408220805491928392611c09908490612932565b90915550611c1990508184612932565b925050600101611bd1565b508060045f828254611c369190612932565b9091555050505b6001600160a01b038316610dd8575f805b8351811015611c8a5760208181028481018201519086018201515f90815260039092526040909120805482900390559190910190600101611c4e565b506004805491909103905550505050565b8051825114611cca5781518151604051635b05999160e01b815260048101929092526024820152604401610c3b565b335f5b8351811015611dcc576020818102858101820151908501909101516001600160a01b03881615611d7e575f828152602081815260408083206001600160a01b038c16845290915290205481811015611d58576040516303dee4c560e01b81526001600160a01b038a166004820152602481018290526044810183905260648101849052608401610c3b565b5f838152602081815260408083206001600160a01b038d16845290915290209082900390555b6001600160a01b03871615611dc2575f828152602081815260408083206001600160a01b038b16845290915281208054839290611dbc908490612932565b90915550505b5050600101611ccd565b508251600103611e4c5760208301515f906020840151909150856001600160a01b0316876001600160a01b0316846001600160a01b03167fc3d58168c5ae7397731d063d5bbf3d657854427343f4c083240f7aacaa2d0f628585604051611e3d929190918252602082015260400190565b60405180910390a45050610a71565b836001600160a01b0316856001600160a01b0316826001600160a01b03167f4a39dc06d4c0dbc64b70af90fd698a233a518aa5d07e595d983b8c0526c8f7fb8686604051611e9b929190612945565b60405180910390a45050505050565b80356001600160a01b0381168114611334575f5ffd5b5f5f60408385031215611ed1575f5ffd5b611eda83611eaa565b946020939093013593505050565b6001600160e01b031981168114611389575f5ffd5b5f60208284031215611f0d575f5ffd5b8135611f1881611ee8565b9392505050565b5f60208284031215611f2f575f5ffd5b5035919050565b5f81518084528060208401602086015e5f602082860101526020601f19601f83011685010191505092915050565b602081525f611f186020830184611f36565b5f5f83601f840112611f86575f5ffd5b5081356001600160401b03811115611f9c575f5ffd5b6020830191508360208260051b8501011115611fb6575f5ffd5b9250929050565b5f5f83601f840112611fcd575f5ffd5b5081356001600160401b03811115611fe3575f5ffd5b602083019150836020828501011115611fb6575f5ffd5b5f5f5f5f5f5f5f6080888a031215612010575f5ffd5b61201988611eaa565b965060208801356001600160401b03811115612033575f5ffd5b61203f8a828b01611f76565b90975095505060408801356001600160401b0381111561205d575f5ffd5b6120698a828b01611f76565b90955093505060608801356001600160401b03811115612087575f5ffd5b6120938a828b01611fbd565b989b979a50959850939692959293505050565b634e487b7160e01b5f52604160045260245ffd5b604051601f8201601f191681016001600160401b03811182821017156120e2576120e26120a6565b604052919050565b5f6001600160401b03821115612102576121026120a6565b5060051b60200190565b5f82601f83011261211b575f5ffd5b813561212e612129826120ea565b6120ba565b8082825260208201915060208360051b86010192508583111561214f575f5ffd5b602085015b8381101561216c578035835260209283019201612154565b5095945050505050565b5f82601f830112612185575f5ffd5b81356001600160401b0381111561219e5761219e6120a6565b6121b1601f8201601f19166020016120ba565b8181528460208386010111156121c5575f5ffd5b816020850160208301375f918101602001919091529392505050565b5f5f5f5f5f60a086880312156121f5575f5ffd5b6121fe86611eaa565b945061220c60208701611eaa565b935060408601356001600160401b03811115612226575f5ffd5b6122328882890161210c565b93505060608601356001600160401b0381111561224d575f5ffd5b6122598882890161210c565b92505060808601356001600160401b03811115612274575f5ffd5b61228088828901612176565b9150509295509295909350565b5f6020828403121561229d575f5ffd5b611f1882611eaa565b5f5f602083850312156122b7575f5ffd5b82356001600160401b038111156122cc575f5ffd5b6122d885828601611f76565b90969095509350505050565b5f8151808452602084019350602083015f5b828110156123145781518652602095860195909101906001016122f6565b5093949350505050565b602081525f611f1860208301846122e4565b5f5f60408385031215612341575f5ffd5b82356001600160401b03811115612356575f5ffd5b8301601f81018513612366575f5ffd5b8035612374612129826120ea565b8082825260208201915060208360051b850101925087831115612395575f5ffd5b6020840193505b828410156123be576123ad84611eaa565b82526020938401939091019061239c565b945050505060208301356001600160401b038111156123db575f5ffd5b6123e78582860161210c565b9150509250929050565b5f5f5f60608486031215612403575f5ffd5b61240c84611eaa565b925060208401356001600160401b03811115612426575f5ffd5b6124328682870161210c565b92505060408401356001600160401b0381111561244d575f5ffd5b6124598682870161210c565b9150509250925092565b5f5f5f5f60808587031215612476575f5ffd5b61247f85611eaa565b9350602085013592506040850135915060608501356001600160401b038111156124a7575f5ffd5b6124b387828801612176565b91505092959194509250565b5f5f5f5f604085870312156124d2575f5ffd5b84356001600160401b038111156124e7575f5ffd5b6124f387828801611f76565b90955093505060208501356001600160401b03811115612511575f5ffd5b61251d87828801611f76565b95989497509550505050565b5f5f6040838503121561253a575f5ffd5b61254383611eaa565b915060208301358015158114612557575f5ffd5b809150509250929050565b5f5f5f60408486031215612574575f5ffd5b8335925060208401356001600160401b03811115612590575f5ffd5b61259c86828701611fbd565b9497909650939450505050565b5f5f5f5f5f5f5f5f5f60a08a8c0312156125c1575f5ffd5b6125ca8a611eaa565b985060208a01356001600160401b038111156125e4575f5ffd5b6125f08c828d01611f76565b90995097505060408a01356001600160401b0381111561260e575f5ffd5b61261a8c828d01611f76565b90975095505060608a01356001600160401b03811115612638575f5ffd5b6126448c828d01611f76565b90955093505060808a01356001600160401b03811115612662575f5ffd5b61266e8c828d01611fbd565b915080935050809150509295985092959850929598565b5f5f5f5f5f60a08688031215612699575f5ffd5b6126a286611eaa565b945060208601359350604086013592506060860135915060808601356001600160401b03811115612274575f5ffd5b5f5f604083850312156126e2575f5ffd5b6126eb83611eaa565b91506126f960208401611eaa565b90509250929050565b5f5f5f5f5f60a08688031215612716575f5ffd5b61271f86611eaa565b945061272d60208701611eaa565b9350604086013592506060860135915060808601356001600160401b03811115612274575f5ffd5b5f5f5f60608486031215612767575f5ffd5b61277084611eaa565b95602085013595506040909401359392505050565b5f5f60408385031215612796575f5ffd5b50508035926020909101359150565b5f5f5f5f606085870312156127b8575f5ffd5b843593506020850135925060408501356001600160401b038111156127db575f5ffd5b61251d87828801611fbd565b600181811c908216806127fb57607f821691505b60208210810361281957634e487b7160e01b5f52602260045260245ffd5b50919050565b634e487b7160e01b5f52603260045260245ffd5b634e487b7160e01b5f52601160045260245ffd5b5f6001820161285857612858612833565b5060010190565b80820281158282048414176104a3576104a3612833565b6001600160a01b0386811682528516602082015260a0604082018190525f906128a1908301866122e4565b82810360608401526128b381866122e4565b905082810360808401526128c78185611f36565b98975050505050505050565b5f602082840312156128e3575f5ffd5b8151611f1881611ee8565b6001600160a01b03868116825285166020820152604081018490526060810183905260a0608082018190525f9061292790830184611f36565b979650505050505050565b808201808211156104a3576104a3612833565b604081525f61295760408301856122e4565b828103602084015261296981856122e4565b9594505050505056fea2646970667358221220fe34d5c2225e24e00af7cb37337f6fbb5bb36ddc2dbc2206ff5637eb62990fd464736f6c634300081c0033697066733a2f2f62616679626569667464636b6c7268766178776e616b666676346372763465616665733670796c32656c7074677071787879337071326f6b6c6e6d2f7b69647d2e6a736f6e",
  "linkReferences": {},
  "deployedLinkReferences": {},
  "immutableReferences": {},
  "inputSourceName": "project/contracts/Bankeer.sol",
  "buildInfoId": "solc-0_8_28-a9138a30f22bf516c3ddcaaae3910723ed1edf31"
}